:100000000C942F000C9400000C9400000C94000041
:100010000C9400000C9400000C9400000C94000060
:100020000C9400000C9400000C9400000C94000050
:100030000C9400000C9400000C9400000C94000040
:100040000C9400000C9400000C9400000C94000030
:040050000C9400000C
:10005E00BFE5BDBFB8E0BEBF0E949300BAB3B062A9
:10006E00BABB01B30F7701BB0F7D01BBBFEFB7BBAF
:10007E0000B307FF33C0B0E0B0936200B0936300EB
:10008E0020916200309163000AE010E020173107E2
:10009E002CF50BB300620BBB29E01EE105EE0A95B1
:1000AE00F1F71A95E1F72A95D1F700000BB30F7D02
:1000BE000BBB29E01EE105EE0A95F1F71A95E1F763
:1000CE002A95D1F7000000916200109163000F5F36
:1000DE001F4F0093620010936300D2CF00B305FF51
:1000EE0018C000916000109161000F5F1F4F0093C8
:1000FE006000109361002DE01DE208ED0A95F1F706
:10010E001A95E1F72A95D1F70000000000916000E2
:06011E0008BBAECFFFCFCD
:0A00540005900D920197E1F7089561
:10012600A0E6B0E0E4E2F1E082E090E00E942A007E
:0201360008952A
:020124000000D9
:00000001FF
