:100000000C9424010C9400000C9400000C9400004B
:100010000C9400000C9400000C9400000C94000060
:100020000C9400000C9400000C9400000C94000050
:100030000C9400000C9400000C9400000C94000040
:100040000C9400000C9400000C9400000C94000030
:040050000C9400000C
:10024800BFE5BDBFB8E0BEBF0E9464010AB30F603E
:100258000ABB04B30F6F04BB07B30F6A07BB06B32F
:1002680004FF02C083DF29C006B306FD03C0B0E067
:10027800B093620006B306FF1FC000916200003011
:10028800D9F409B306FF0BC000916000109161001A
:100298000150104000936000109361000AC0009163
:1002A8006000109161000F5F1F4F00936000109372
:0E02B8006100B1E0B09362008ADFD1CFFFCFCA
:100174000BB301600BBBBCE7B5BB1AE20EE80A95F2
:10018400F1F71A95E1F70000BBB3B260BBBBB0E373
:10019400B5BB1AE20EE80A95F1F71A95E1F70000EB
:1001A4000BB304600BBBBCE5B5BB1AE20EE80A95C1
:1001B400F1F71A95E1F700000BB308600BBBB8E543
:1001C400B5BB1AE20EE80A95F1F71A95E1F70000BB
:0201D40008958C
:1001D600CF93DF93CDB7DEB72497CDBFDEBF219691
:1001E6002F923F920091600010916100088319835D
:1001F600B1E0BA83B0E0BB8308811981B02FB12B7F
:10020600C1F04AE050E00881198182DF8C01302E6E
:100216002A801DDF4AE050E00881198179DF8B01D1
:10022600088319830A811B810F5F1F4F0A831B8373
:10023600E3CF3F902F902396CDBFDEBFDF91CF91C6
:02024600089519
:100054000BB3007F0BBB05B3007005BB28C005B311
:100064000F6305BB42C005B3066005BB3EC005B3C4
:100074000B6505BB3AC005B30F6405BB36C005B3B9
:10008400066605BB32C005B30D6605BB2EC005B3BD
:100094000D6705BB2AC005B3076005BB26C005B3C1
:1000A4000F6705BB22C005B30F6605BB1EC0B0E0D9
:1000B4003B16A9F2B1E03B16B1F2B2E03B16B9F23D
:1000C400B3E03B16C1F2B4E03B16C9F2B5E03B160F
:1000D400D1F2B6E03B16D9F2B7E03B16E1F2B8E054
:1000E4003B16E9F2B9E03B16F1F2022D0150B02FB4
:1000F40011E0BB2319F0110FBA95E9F70BB3012BEB
:100104000BBB1AE20EE80A95F1F71A95E1F7000025
:0201140008954C
:10011600C801BA0197FB092E07260AD077FD04D03D
:100126000CD006D000201AF4709561957F4F089583
:10013600F6F7909581959F4F0895AA1BBB1B51E139
:1001460007C0AA1FBB1FA617B70710F0A61BB70B41
:10015600881F991F5A95A9F780959095BC01CD01E6
:04016600089508955B
:0A016A0005900D920197E1F708954A
:1002C800A0E6B0E0E6ECF2E082E090E00E94B50043
:0202D800089587
:0202C600E8034B
:00000001FF
