:100000000C9401010C9400000C9400000C9400006E
:100010000C9400000C9400000C9400000C94E4007C
:100020000C9400000C9400000C9415010C9400003A
:100030000C9400000C9400000C9400000C94000040
:100040000C9400000C9400000C9400000C94000030
:040050000C9400000C
:10020200BFE5BDBFB8E0BEBF0E940002BFE0BABBFF
:10021200BFEFB4BB07B30E7F07BB01B3007801BBCE
:08022200B2DFBEDFFFCFFFCF0A
:10018800BBE0B3BFB0E0B2BFBCE7BCBFB9B7B260B9
:0A019800B9BF0FB700680FBF08954C
:1001A200B0E0BFBDBCE0BEBDB0E0BDBDB0E0BCBD17
:1001B200BAE7BBBDB2E1BABDB9B7B061B9BF0FB75B
:0601C20000680FBF089564
:0A00540005900D920197E1F7089561
:10040000A0E6B0E0E8EFF3E088E090E00E942A0088
:0204100008954D
:10022A000F920F938F939F93AF93BF93EF93FF9385
:10023A00EF93FF93BF93BFB7BF932F923F92009163
:10024A00620010916300103009F4033009F08CC089
:10025A0000916000109161000F5F1F4F00936000D2
:10026A001093610057C0009164004AE010E007FD56
:10027A001FEF50E047FD5FEF58DF082F302EB4E044
:10028A002B2EE8DE6BC0009164004AE010E007FD07
:10029A001FEF50E047FD5FEF48DF062F4AE010E00E
:1002AA0007FD1FEF50E047FD5FEF3FDF082F302EBD
:1002BA00B3E02B2ECFDE52C0009165004AE010E079
:1002CA0007FD1FEF50E047FD5FEF2FDF082F302EAD
:1002DA00B2E02B2EBFDE42C0009165004AE010E07A
:1002EA0007FD1FEF50E047FD5FEF1FDF062F4AE0D3
:1002FA0010E007FD1FEF50E047FD5FEF16DF082F04
:10030A00302EB1E02B2EA6DEB0E0B0936000B093A1
:10031A00610024C00091600010916100103009F45E
:10032A00013009F4A0CF00916000109161001030F3
:10033A0009F4023009F4A7CF00916000109161001E
:10034A00103009F4033009F4B7CF0091600010911E
:10035A006100103009F4043009F4BECFB0E0B09364
:10036A006200B09363000AC00091620010916300BA
:10037A000F5F1F4F009362001093630000916600A5
:10038A0010916700133009F4073E59F40091640094
:10039A000F5F00936400B0E0B0936600B09367000B
:1003AA000AC000916600109167000F5F1F4F00930B
:1003BA00660010936700009164000C3341F40091C9
:1003CA0065000F5F00936500B0E0B09364003F9052
:1003DA002F90BF91BFBFBF91FF91EF91FF91EF9116
:0E03EA00BF91AF919F918F910F910F90189539
:10005E000BB3007F0BBB05B3007005BB28C005B307
:10006E000F6305BB42C005B3066005BB3EC005B3BA
:10007E000B6505BB3AC005B30F6405BB36C005B3AF
:10008E00066605BB32C005B30D6605BB2EC005B3B3
:10009E000D6705BB2AC005B3076005BB26C005B3B7
:1000AE000F6705BB22C005B30F6605BB1EC0B0E0CF
:1000BE003B16A9F2B1E03B16B1F2B2E03B16B9F233
:1000CE00B3E03B16C1F2B4E03B16C9F2B5E03B1605
:1000DE00D1F2B6E03B16D9F2B7E03B16E1F2B8E04A
:1000EE003B16E9F2B9E03B16F1F210C0BBB3B860B3
:1000FE00BBBB18C00BB304600BBB14C00BB30260C8
:10010E000BBB10C00BB301600BBB0CC0B1E02B16C8
:10011E0069F3B2E02B1671F3B3E02B1679F3B4E06A
:06012E002B1681F3089579
:10013400C801BA0197FB092E07260AD077FD04D01F
:100144000CD006D000201AF4709561957F4F089565
:10015400F6F7909581959F4F0895AA1BBB1B51E11B
:1001640007C0AA1FBB1FA617B70710F0A61BB70B23
:10017400881F991F5A95A9F780959095BC01CD01C8
:04018400089508953D
:1001C8000F93EF93FF93BF93BFB7BF930091640062
:1001D8000F5F00936400BCE3B0936400B0E0B09399
:1001E8006400009165000F5F00936500BF91BFBF79
:0A01F800BF91FF91EF910F91189550
:0203F800000003
:0203FA00000001
:0103FC000000
:0103FD0000FF
:0203FE000000FD
:00000001FF
