:100000000C94C7010C9400000C9400000C940000A8
:100010000C9400000C9400000C9419010C94000046
:100020000C9400000C94AE010C94DB010C940000C5
:100030000C9400000C9400000C9400000C94000040
:100040000C9400000C9400000C9400000C94000030
:040050000C9400000C
:10038E00BFE5BDBFB8E0BEBF0E949202BFE0BABBE0
:10039E00BFEFB4BBB1B3BF7BB1BB0FB700680FBF2C
:0803AE00ECDE36DFFFCFFFCFCC
:10018800BBE0B3BFB0E0B2BFBDE7BCBFB9B7B260B8
:04019800B9BF08954E
:10021E00B0E0BFBDB2E4BEBD09B7006209BF046065
:04022E0009BF089567
:0A00540005900D920197E1F7089561
:10052400A0E6B0E0EAE1F5E08AE090E00E942A006B
:02053400089528
:1003B6000F920F938F939F93AF93BF93EF93FF93F8
:1003C600EF93FF93BF93BFB7BF932F923F920091D6
:1003D600620010916300113009F4043F71F400913A
:1003E6006A0010916B000093640010936500B0E002
:1003F600B0936200B09363000AC00091620010914E
:1004060063000F5F1F4F009362001093630000911B
:100416006000109161000F5F1F4F00936000109302
:10042600610045C04AE050E000916400109165000B
:100436007EDE8C01302EB1E02B2E0EDE5BC04AE054
:1004460050E0009164001091650071DE8B014AE076
:1004560050E06DDE8C01302EB2E02B2EFDDD4AC061
:1004660044E650E0009164001091650060DE8B0167
:100476004AE050E05CDE8C01302EB3E02B2EECDD42
:1004860039C048EE53E000916400109165004FDEDC
:100496008B014AE050E04BDE8C01302EB4E02B2E6F
:1004A600DBDDB0E0B0936000B093610023C0009143
:1004B600600010916100103009F4013009F4B2CFE8
:1004C6000091600010916100103009F4023009F4C7
:1004D600B6CF0091600010916100103009F403302E
:1004E60009F4BECF0091600010916100103009F44C
:1004F600043039F23F902F90BF91BFBFBF91FF915B
:10050600EF91FF91EF91BF91AF919F918F910F91D5
:040516000F90189595
:10005E000BB3007F0BBB05B3007005BB28C005B307
:10006E000F6305BB42C005B3066005BB3EC005B3BA
:10007E000B6505BB3AC005B30F6405BB36C005B3AF
:10008E00066605BB32C005B30D6605BB2EC005B3B3
:10009E000D6705BB2AC005B3076005BB26C005B3B7
:1000AE000F6705BB22C005B30F6605BB1EC0B0E0CF
:1000BE003B16A9F2B1E03B16B1F2B2E03B16B9F233
:1000CE00B3E03B16C1F2B4E03B16C9F2B5E03B1605
:1000DE00D1F2B6E03B16D9F2B7E03B16E1F2B8E04A
:1000EE003B16E9F2B9E03B16F1F210C0BBB3B860B3
:1000FE00BBBB18C00BB304600BBB14C00BB30260C8
:10010E000BBB10C00BB301600BBB0CC0B1E02B16C8
:10011E0069F3B2E02B1671F3B3E02B1679F3B4E06A
:06012E002B1681F3089579
:10013400C801BA0197FB092E07260AD077FD04D01F
:100144000CD006D000201AF4709561957F4F089565
:10015400F6F7909581959F4F0895AA1BBB1B51E11B
:1001640007C0AA1FBB1FA617B70710F0A61BB70B23
:10017400881F991F5A95A9F780959095BC01CD01C8
:04018400089508953D
:10035C000F931F93EF93FF93BF93BFB7BF9300917E
:10036C006E0010916F000F5F1F4F00936E00109383
:10037C006F00BF91BFBFBF91FF91EF911F910F9184
:02038C001895C2
:100232000F921F922F923F924F925F926F927F92F4
:100242008F929F92AF92BF92CF92DF92EF92FF92E4
:100252000F931F932F933F934F935F936F937F93CC
:100262008F939F93AF93BF93CF93DF93EF93FF93BC
:10027200EF93FF93BF93BFB7BF93B0E0BDBDB0E0B4
:10028200BCBD06B500937000B0E0B093710007B535
:1002920000936C00B0E0B0936D0000916C0010917F
:1002A2006D00302F22270091700010917100A9017A
:1002B200402B512B00916E0010916F00312F202F97
:1002C20000271127040F151FB0E057FDBFEF2B1FAA
:1002D2003B1FA801B901440F551F661F771F4093AA
:1002E200660050936700609368007093690000E0B5
:1002F20017E823E933E051DF89019A0100936A008C
:1003020010936B00B0E0B0936E00B0936F00BF919A
:10031200BFBFBF91FF91EF91FF91EF91DF91CF911D
:10032200BF91AF919F918F917F916F915F914F910B
:100332003F912F911F910F91FF90EF90DF90CF90FF
:10034200BF90AF909F908F907F906F905F904F90F3
:0A0352003F902F901F900F90189518
:10019C00C9019A01AB01B80197FB092E05260ED0B7
:1001AC0057FD04D014D00AD0001C38F4509540955B
:1001BC00309521953F4F4F4F5F4F0895F6F790952F
:1001CC008095709561957F4F8F4F9F4F0895A1E259
:1001DC001A2EAA1BBB1BFD010DC0AA1FBB1FEE1FB5
:1001EC00FF1FA217B307E407F50720F0A21BB30B00
:1001FC00E40BF50B661F771F881F991F1A9469F77C
:10020C0060957095809590959B01AC01BD01CF01D7
:02021C00089543
:02051A000000DF
:02051C000000DD
:02051E000000DB
:0405200000000000D7
:00000001FF
