:100000000C944D020C9442020C9400000C940000DD
:100010000C9400000C9400000C9400000C94000060
:100020000C9400000C9400000C945F020C940000EF
:100030000C9400000C9400000C9400000C94000040
:100040000C9453030C9400000C9400000C940000DA
:040050000C9400000C
:10049A00BFE5BDBFB8E0BEBF0E947C03BFE0BABBE8
:1004AA00BFEFB4BB18DFD3DEE1DEBFB7B068BFBFB2
:0404BA00FFCFFFCFA2
:1002E000BBE0B3BFB0E0B2BFBDE7BCBFB9B7B2605F
:0402F000B9BF0895F5
:0A025800B0E4BBBFB3E0B5BF0895EA
:0E027600B7E4B7B9BFEAB6B9B0E4B0BF0895B7
:0A047A0005900D920197E1F7089537
:1006F800A0E6B0E0E4EFF6E084E090E00E943D027E
:02070800089552
:1006A600EF93FF93BF93BFB7BF9304B10093660068
:1006B600B0E0B093670005B100936800B0E0B09376
:1006C60069000091680010916900302F222700917F
:1006D600660010916700022B132B00937200109393
:0E06E6007300BF91BFBFBF91FF91EF911895B8
:1004BE000F920F931F932F933F938F939F93AF930F
:1004CE00BF93EF93FF93EF93FF93BF93BFB7BF938A
:1004DE002F923F924F925F920091600010916100B7
:1004EE000F5F1F4F00936000109361004DC04AE0F4
:1004FE0050E000916400109165008EDF8C012801A0
:10050E00B1E02B2EB0E03B2EEEDE61C04AE050E0B3
:10051E0000916400109165007FDF8B014AE050E08E
:10052E007BDF8C012801B2E02B2EB0E03B2EDBDE10
:10053E004EC044E650E000916400109165006CDFFF
:10054E008B014AE050E068DF8C012801B3E02B2ECE
:10055E00B0E03B2EC8DE3BC048EE53E00091640095
:10056E001091650059DF8B014AE050E055DF8C0198
:10057E002801B4E02B2EB0E03B2EB5DEB0E0B093F8
:10058E006000B093610023C0009160001091610083
:10059E00103009F4013009F4AACF009160001091D7
:1005AE006100103009F4023009F4B0CF0091600000
:1005BE0010916100103009F4033009F4BACF0091A4
:1005CE00600010916100103009F4043029F200919E
:1005DE00620010916300103009F4043609F03DC03A
:1005EE00009172001091730020E017FD2FEF322F53
:1005FE0010DF40E050E060EA70E42CDE40E050E0B6
:10060E0060E874E45CDE00936E0010936F0020933C
:10061E0070003093710040E050E06AE774E41ADE37
:10062E0040E050E060E271E44ADE00936A0010930D
:10063E006B0020936C0030936D0040E050E060E260
:10064E0071E408DE18DE0093640010936500B0E0DC
:10065E00B0936200B09363000AC0009162001091E3
:10066E0063000F5F1F4F00936200109363005F9053
:10067E004F903F902F90BF91BFBFBF91FF91EF91D1
:10068E00FF91EF91BF91AF919F918F913F912F91DC
:08069E001F910F910F901895B8
:1002F4000BB3007F0BBB05B3007005BB28C005B36F
:100304000F6305BB61C005B3066005BB5DC005B3E3
:100314000B6505BB59C005B30F6405BB55C005B3D8
:10032400066605BB51C005B30D6605BB4DC005B3DC
:100334000D6705BB49C005B3076005BB45C005B3E0
:100344000F6705BB41C005B30F6605BB3DC0B0E0F8
:100354005B1611F4B0E04B1691F2B0E05B1611F4A9
:10036400B1E04B1681F2B0E05B1611F4B2E04B162B
:1003740071F2B0E05B1611F4B3E04B1661F2B0E039
:100384005B1611F4B4E04B1651F2B0E05B1611F4B5
:10039400B5E04B1641F2B0E05B1611F4B6E04B1633
:1003A40031F2B0E05B1611F4B7E04B1621F2B0E085
:1003B4005B1611F4B8E04B1611F2B0E05B1611F4C1
:1003C400B9E04B1609F4BFCF10C00BB301600BBBEF
:1003D40024C0BBB3B260BBBB20C00BB304600BBB77
:1003E4001CC00BB308600BBB18C0B0E03B1611F483
:1003F400B1E02B1651F3B0E03B1611F4B2E02B162A
:1004040041F3B0E03B1611F4B3E02B1631F3B0E046
:0C0414003B1611F4B4E02B1621F3089500
:10042600C801BA0197FB092E07260AD077FD04D02A
:100436000CD006D000201AF4709561957F4F089570
:10044600F6F7909581959F4F0895AA1BBB1B51E126
:1004560007C0AA1FBB1FA617B70710F0A61BB70B2E
:10046600881F991F5A95A9F780959095BC01CD01D3
:040476000895089548
:06042000E89476DE089569
:1001100047E16627552726F0332312F4ADDF60E868
:04012000B4DF0895AB
:1000780000951095209530950F5F1F4F2F4F3F4FDC
:020088000895D9
:10008A00EEDF11F19F938F938EE790E0332351F0C7
:10009A00369527951795079548175907B4F44F5F72
:1000AA005F4FF4CF80959095019622239AF0000F26
:1000BA00111F221F481759071CF041505040F5CF15
:1000CA00002711272227332708C033270FEF102FC5
:0C00DA002FE7322F8F919F91B8DF08951F
:10006800002329F4112319F4222309F433230895D2
:0000780088
:1000540009D039F041585F4F342F220F3695279538
:04006400362B08959A
:10026200042E152E262E372E5CDF002E112E222E66
:04027200332E08958A
:10012400E0DF81F1E62ED52EC42EB32EA22E912E21
:10013400802E002D112D222D332DD3DF19F16E25A4
:100144004C0D5D1D40385307F4F441387FEF5707D9
:10015400FCF088279927AA27BB2770E2B695A795B4
:1001640097958795379527951795079520F4880DCA
:10017400991DAA1DBB1D7A9589F7032F3A2F292FA4
:10018400182F81DF0AC00FEF102F2FE73FE7FACFB8
:0C0194000027102F202F302FF5CF0895EA
:1000E600C0DF79F0632F6078220F331F432F5FE75D
:1000F600451B55275040269530E8232B33279894E7
:0A01060003C044275527662708951B
:1002CC00042E152E262E372E65DF002E112E222EF3
:0402DC00332E089520
:1001A0003F932F931F930F93002D112D222D332D4D
:1001B0009ADF09F44BC0E62ED52EC42EB32EA22E04
:1001C000912E802E0F911F912F913F918CDF61F125
:1001D0006E254C195D09403853073CF541387FEFD7
:1001E00057077CF180E27724632E522E412E302F68
:1001F000222711270027000F111F221F331F441C25
:10020000551C661C771C28F0481859086A087B089A
:1002100004C0480C591C6A1C7B1C0AF001608A95BA
:1002200051F74150504031DF16C00FEF102F2FE72C
:100230003FE76623C9F318DFB9F3342D30E83425DE
:10024000F3CF0027102F202F302FEECF0F900F90DD
:080250000F900F90EACF089512
:1002840030DFF1F05523C2F04F31A8F44731C1F00B
:1002940050F44195495E05C0359527951795079506
:1002A4004A95D1F70DC04751000F111F221F331F6C
:1002B4004A95D1F705C03FE7232F132F032F03C01F
:0802C400662309F0D7DE08955E
:10048400EF93FF93BF93BFB7BF93BF91BFBFBF911C
:06049400FF91EF911895A5
:0206F400000004
:0206F600000002
:00000001FF
