:100000000C94C9000C9400000C9400000C940000A7
:100010000C9400000C9400000C9400000C94000060
:100020000C9400000C9400000C9400000C94000050
:100030000C9400000C9400000C9400000C94000040
:100040000C9400000C9400000C9400000C94000030
:040050000C9400000C
:10019200BFE5BDBFB8E0BEBF0E9485012F923F926E
:1001A200BFE0BABBBFEFB4BB07B30E7F07BB01B35F
:1001B200007801BBE8DF06B3013059F4B0E0B09338
:1001C2006100B0936200B0E0B0936000B0E0B09321
:1001D200630000B30038C9F41091600009E0011710
:1001E2008CF4009160004AE010E007FD1FEF50E040
:1001F20047FD5FEF33DF062F1AE0019F002D0093CA
:10020200600003C0B0E0B093600002B70D3740F168
:10021200B0E0B2BF009161001091620098012F5FBF
:100222003F4F209361003093620008EE13E02017E5
:10023200310754F0B0E0B0936100B09362000091D6
:1002420060000F5F00936000009160000C3344F087
:10025200B0E0B0936000009163000F5F0093630011
:10026200009160004AE010E007FD1FEF50E047FDFB
:100272005FEFF4DE082F302EB4E02B2E19DF009151
:1002820060004AE010E007FD1FEF50E047FD5FEF1E
:10029200E5DE062F4AE010E007FD1FEF50E047FDC4
:1002A2005FEFDCDE082F302EB3E02B2E01DF009152
:1002B20063004AE010E007FD1FEF50E047FD5FEFEB
:1002C200CDDE082F302EB2E02B2EF2DE009163003D
:1002D2004AE010E007FD1FEF50E047FD5FEFBEDE92
:1002E200062F4AE010E007FD1FEF50E047FD5FEFE9
:1002F200B5DE082F302EB1E02B2EDADE5CCF3F9038
:040302002F90FFCF6A
:0A018800B3E0B3BFB0E0B2BF0895CA
:1000B2000BB3007F0BBB05B3007005BB28C005B3B3
:1000C2000F6305BB42C005B3066005BB3EC005B366
:1000D2000B6505BB3AC005B30F6405BB36C005B35B
:1000E200066605BB32C005B30D6605BB2EC005B35F
:1000F2000D6705BB2AC005B3076005BB26C005B363
:100102000F6705BB22C005B30F6605BB1EC0B0E07A
:100112003B16A9F2B1E03B16B1F2B2E03B16B9F2DE
:10012200B3E03B16C1F2B4E03B16C9F2B5E03B16B0
:10013200D1F2B6E03B16D9F2B7E03B16E1F2B8E0F5
:100142003B16E9F2B9E03B16F1F210C0BBB3B8605E
:10015200BBBB18C00BB304600BBB14C00BB3026073
:100162000BBB10C00BB301600BBB0CC0B1E02B1674
:1001720069F3B2E02B1671F3B3E02B1679F3B4E016
:060182002B1681F3089525
:0A00540005900D920197E1F7089561
:10005E00C801BA0197FB092E07260AD077FD04D0F6
:10006E000CD006D000201AF4709561957F4F08953C
:10007E00F6F7909581959F4F0895AA1BBB1B51E1F2
:10008E0007C0AA1FBB1FA617B70710F0A61BB70BFA
:10009E00881F991F5A95A9F780959095BC01CD019F
:0400AE000895089514
:10030A00A0E6B0E0E6E0F3E084E090E00E942A0094
:02031A00089544
:0103060000F6
:020307000000F4
:0103090000F3
:00000001FF
